:020000040800F2
:1000000040A40020E1C60008A5C40008A7C4000859
:10001000A9C40008ABC40008ADC40008000000007B
:10002000000000000000000000000000AFC4000855
:10003000B1C4000800000000B3C40008B5C4000843
:100040001DC8000821C8000825C8000829C80008E4
:100050002DC8000831C8000835C8000839C8000894
:100060003DC8000841C8000845C8000849C8000844
:100070004DC8000851C8000855C8000859C80008F4
:100080005DC8000861C8000865C8000869C80008A4
:100090006DC8000871C8000875C8000879C8000854
:1000A0007DC8000881C8000885C8000889C8000804
:1000B0008DC8000891C8000895C8000899C80008B4
:1000C0009DC80008A1C80008A5C80008A9C8000864
:1000D000ADC80008B1C80008B5C80008B9C8000814
:1000E000BDC80008C1C80008C5C80008C9C80008C4
:1000F000CDC80008D1C80008D5C80008D9C8000874
:10010000DDC80008E1C80008E5C80008E9C8000823
:10011000EDC80008F1C80008F5C80008F9C80008D3
:10012000FDC8000801C9000805C9000809C9000880
:100130000DC9000811C9000815C9000819C900082F
:100140001DC9000821C9000825C9000829C90008DF
:100150002DC9000831C9000835C9000839C900088F
:100160003DC9000841C9000845C9000849C900083F
:100170004DC9000851C9000855C900080000000019
:1001800059C900085DC900082DE9FE4F0500002D82
:1001900008D1DFF8683C8322DFF8D017DFF8D007FA
:1001A00001F030FDDFF8586C686830606889142809
:1001B00004DA280001F071FFBDE8F78FDFF8B477AB
:1001C0003968786902F07CF9002804D1387D10F094
:1001D000F000E02800D1ECE73068808902F096F961
:1001E00080B2000B81000800C0B2142805DB28890A
:1001F0000A00D2B292B2904200D2DAE7DFF8784732
:100200000800C0B214382080DFF870870020C8F8DA
:10021000000068890A00D2B292B2904208D32088C6
:10022000DFF85C271080C9B2280001F0E9FE46E043
:100230002868002808D1DFF8C43BC222DFF8441741
:10024000DFF82C0701F0DEFC1421280001F0D8FEB5
:10025000DFF82C0769890180218804880C1B01883C
:10026000280001F0CDFE28684089210089B288422B
:100270009FD328684068C8F80000210089B2286828
:1002800001F0BEFE2889041B2C816889002808D053
:10029000DFF8683BDF22DFF8F016DFF8D40601F064
:1002A000B1FC288929680989884208D0DFF84C3BCD
:1002B000E022DFF8D816DFF8B80601F0A3FC3068BA
:1002C000008802F023F9316808803068408802F025
:1002D0001DF9316848803168486802F01FF93168BB
:1002E0004860DFF8381C08603168886802F016F949
:1002F00031688860DFF8288CC8F800003068C08951
:1003000002F004F93168C8813068808902F0FEF893
:1003100010F03F00DFF878160870DFF8089C288995
:10032000A9F80000DFF86806007810F0030F0AD083
:10033000B9F80000401CA9F80000B9F800002989AC
:100340008842FFF436AF5FF0000BDFF8DCABDAF881
:10035000004001E0A346E468002C67D0207D00281F
:1003600008D1DFF8983AFB22DFF82816DFF80006FC
:1003700001F048FC207D0A2808D1DFF8803AFC22F1
:10038000DFF8A81BDFF8E80501F03CFC207D012820
:1003900008D1DFF8683AFD22DFF8941BDFF8D005BA
:1003A00001F030FC207A002809D0207A796891F891
:1003B0003010491CC9B2884201D0A346CBE7208B3C
:1003C000316809888842C5D1E08A31684988884205
:1003D000C0D1606839698842BCD120687969884297
:1003E000B8D1E068A04209D1DFF8103A40F20D120E
:1003F000DFF8401BDFF8780501F004FCBBF1000FCB
:1004000007D0E068CBF80C00DAF80000E060CAF82A
:100410000040E068A04209D1DFF8E03940F215124F
:10042000DFF8B41BDFF8480501F0ECFB002C71D1BC
:10043000DFF8A80B046808E0207A796891F830109A
:10044000491CC9B2884212D0E468002C28D0207D13
:100450000A2809D0DFF8A43940F21F12DFF8801B08
:10046000DFF80C0501F0CEFB207A0028E4D1208BC8
:10047000316809888842E7D1E08A31684988884232
:10048000E2D1606839698842DED1206879698842A2
:10049000DAD1200000F019FA280001F0FEFD8BE609
:1004A0000022DFF8403B186806E0002823D00168EE
:1004B000002920D00200C06800281CD0017A002941
:1004C0000CD0017AD7F804C09CF830C01CF1010CA4
:1004D0005FFA8CFC614501D00200ECE7C18AD6F8D6
:1004E00000C0BCF802C06145E4D10168D7F814C06F
:1004F0006145DAD1FFE700280CD0002A04D0C1689A
:10050000D1601968C160186000F041F9280001F05D
:10051000C4FD51E6002C00F0EE80DFF87C7B00206B
:100520003860288938817D603068F860DFF86C6B4E
:1005300000203060DFF8688B002088F80000DFF8CA
:1005400064BB0020ABF80000DFF84404007800072B
:1005500003D5687B50F001006873A06F002813D0AA
:10056000200002F038FD10F10D0F06D0A06F00281A
:100570000AD0B9F80000002806D0608D002802D10A
:10058000200003F05DFFA7E0DFF81C5B2C6020007B
:1005900000F002FA7FF00C09494640B2884200F0B0
:1005A0009B8098F80000000711D5D4F8900000282F
:1005B00005D07FF00D012069D4F8902090472100EC
:1005C000504602F0F1FE200001F0C1FF84E000205F
:1005D000BBF80000002814D0BBF80020D4F880003D
:1005E000002806D092B221002069D4F880309847C4
:1005F00000E00020494640B288426DD00020ABF8B0
:100600000000200000F098F8002865D1306800282C
:1006100032D0A06F002809D0DFF8E0374FF4F37232
:10062000DFF8881ADFF8480301F0ECFAA07EC00674
:1006300006D5306801F031FD200002F08FF94BE063
:10064000D4F88400002807D00023326821002069F4
:10065000D4F884C0E04705E0002332682100002080
:1006600002F04AFD01004A4649B2914234D040B2FC
:10067000002801D03068A06798F80000800608D5EF
:10068000A06F00280DD0A06F407B50F02000A16F1C
:10069000487300202860200000F04EF8002818D091
:1006A0001AE0208DB0F5066F02D0208D401C208509
:1006B000D4F88400002807D00023002221002069FC
:1006C000D4F884C0E04700E0002040B24845E0D1C3
:1006D00002E0200003F052FA0020DFF8CC19086095
:1006E000002030607868002825D0786801F0D5FCBB
:1006F000002078601FE03068808901F007FF400724
:1007000016D430680088029030684088019017F154
:100710001000009017F11403DFF800080068B9F822
:10072000001010FA81F2D8F80010002003F040FE0B
:10073000280001F0B2FC3FE510B50400002C08D100
:10074000DFF8B83640F25A22DFF86419884801F021
:1007500059FADFF84C090078C00616D5A07EC0060D
:1007600009D4D4F89000002805D07FF00E0120694C
:10077000D4F8902090472100DFF8AC0702F014FE77
:10078000200001F0E4FE012000E0002010BDFEB5D5
:1007900004007F4D2878400700F19680002C08D196
:1007A000DFF8583640F28122DFF80819704801F06E
:1007B00029FA2878C0061BD56E48DFF844160A6867
:1007C0001288029209684988019110F11001009184
:1007D00010F11403DFF844070068DFF848170988B0
:1007E0004218DFF83C070168200003F0E1FD6BE0F0
:1007F0002878800768D5607D02F03AFD0500002D5D
:100800000CD1A069002806D05FF0FF3200212069DA
:10081000A369984701E07FF00F0055E05548416912
:10082000296000696860E08AE882DFF8D465306892
:100830000088288303202875DFF8E0763868401C9C
:100840006862686AE862280002F012FEA8652865FE
:100850006864E8653868401E686520692861EC674F
:10086000607A10F00C006872207A2872DFF8B806FF
:100870000168E960056003F038FF0120DFF83818EF
:100880000870280001F030F93068C089A5F86000D0
:10089000B5F86000A5F86200281D03F0CFFF010045
:1008A0002A1D688E02F0FEFD68861221280003F0E2
:1008B000A3F840B2002804D00021280001F0C7FFAF
:1008C00002E0280003F05AF9F7BD3EB50400304DB0
:1008D0002878400748D4002C08D1DFF8203540F2B2
:1008E000EE22DFF8D817224801F08CF9287880072B
:1008F00027D5DFF828160A68606A121A002A27D45A
:100900000A68606A121A208D121A012A20DA194820
:10091000DFF8EC2413681B88029312685288019256
:1009200010F11002009210F114030868DFF8F415BA
:1009300009884218DFF8E8050168200003F038FD57
:1009400012E02878C00703D5DFF87407006820623A
:10095000DFF8D0050088002806D0608B50F0020038
:100960006083200003F00AF937BD0000B4C300081B
:1009700078B50008648300202C84002000840020C7
:100980002E84002080C60008D8C70008B4BC000828
:100990003C840020A0B500087FB50500002400209D
:1009A000002D09D1DFF854344FF44772DFF81417E3
:1009B000DFF8140701F026F9DFF8206A30784007E5
:1009C00042D5287D022807D1DFF854050068296D3B
:1009D000884219D1012417E0DFF8401508686A6AD7
:1009E000904201D101240FE00A68686A121A002AB5
:1009F0000AD40968686A091A288D091A012903DAD4
:100A0000688B50F002006883E4B2002C1AD0287D75
:100A1000002809D1DFF8E4334FF44E72DFF8AC164A
:100A2000DFF8A40601F0EEF8DFF87406017851F063
:100A300008010170698B4FF6FE70014069837FF0F9
:100A40000D0068E2002066E2307880070BD5287D33
:100A5000022808D0287D032805D0688B50F00200BA
:100A60006883002057E2A87EC00603D4DFF8500652
:100A700000682862002085F89B00002085F89A0015
:100A8000280001F031F8287D022814D0C0F04282FD
:100A9000042800F06B81C0F0CF80062800F0C781E9
:100AA000C0F07381082800F0F081C0F05F81092850
:100AB00000F01C822EE2307810F01200122840F074
:100AC0009380DFF85C1408686A6C521C904240F016
:100AD0008B80DFF848040268521C6A626A6AEA6224
:100AE00009686964C6490968C989A5F86010B5F83C
:100AF0006010A5F862100068401E68650420287523
:100B0000281D03F09BFE01002A1D688E02F0CAFC1E
:100B1000688641F21D10698E4900814202D3698EB8
:100B2000490001E041F21C116A8E92008A4202D211
:100B3000688E800008E0698E4900814202D3688E89
:100B4000400001E041F21C10A5F84800B5F866002D
:100B5000002808D1A94B4FF45B72DFF87415DFF859
:100B6000680501F04FF8B5F86600401EA5F866006C
:100B70002C6F002C0ED1EC6E002C08D19F4B4FF443
:100B80005D72DFF85015DFF8400501F03BF8206892
:100B9000E86601E020682867200002F07DFA286FEF
:100BA000002803D15FF0FF30288604E0002028866B
:100BB000002085F84200D5F88800002807D00022E0
:100BC00029002869D5F888309847010000E0002105
:100BD0007FF00C00020049B2914200F09C81688BCA
:100BE00050F00200688326E03078C00623D5DFF895
:100BF000E80483490A6812880292096849880191C9
:100C000010F11001009110F11403DFF810030068D7
:100C1000DFF8101309884218DFF804030168280080
:100C200003F0C6FB95F84200062804DA0020288667
:100C3000280003F027FA6DE13078C00640F1898082
:100C4000B7490A68686C121A521E002A69D40A68E9
:100C5000286D121A012A64DA04202875E86F00282A
:100C600002D17FF0050019E0E86F8069002808D103
:100C7000624B4FF46A72DFF86414DFF84C0400F042
:100C8000C1FFE86F8069002806D00022290028698A
:100C9000EB6F9B69984701E07FF00F00010049B2BC
:100CA00000290AD07FF00C04210040B2884202D013
:100CB000280001F053FE20002DE1280000F010FA7A
:100CC000DFF8E0130888002802D00888401E08805A
:100CD00041F21D10698E4900814202D3698E49009C
:100CE00001E041F21C116A8E92008A4202D2688EA3
:100CF000800008E0698E4900814202D3688E40007E
:100D000001E041F21C10A5F84800DFF894030078D8
:100D100080062AD5688B50F002006883072028756A
:100D200023E0DFF8B403364A13681B880293126885
:100D30005288019210F11002009210F114037748CA
:100D40000068784A128882180968280003F030FB8E
:100D50000BE03078800708D570480068696A491E42
:100D6000884202D1280003F0A5F9D3E0280000F062
:100D7000B7F9DFF82C030078800605D5688B50F0B2
:100D80000200688307202875C4E0280000F0A8F955
:100D9000C348007880063CD53078C00632D560481C
:100DA0000068296D88422DD1E86E00282AD1688B11
:100DB00050F002006883280002F0BAFA5A4801682D
:100DC000A94203D10168C968016009E0006800E038
:100DD000C068002804D0C168A942F9D1E968C1609F
:100DE0000020E8600120B44908700A2028757B487B
:100DF0000168E960056003F078FC17E044A500088D
:100E0000FC830020688B50F002006883082028755E
:100E10000CE03078C00609D541480068296D884249
:100E200004D1E86E002801D10620287572E0280060
:100E300000F056F99A480078800625D5688B50F066
:100E400002006883280002F073FA37480168A9425B
:100E500003D10168C968016009E0006800E0C0686A
:100E6000002804D0C168A942F9D1E968C160002016
:100E7000E8600120904908700A20287557480168E9
:100E8000E960056003F031FC44E0280000F028F937
:100E90003078C00629D522480068296D884224D1BF
:100EA000E86E002821D1280002F042FA1E480168AD
:100EB000A94203D10168C968016009E0006800E047
:100EC000C068002804D0C168A942F9D1E968C160AE
:100ED0000020E8600120784908700A2028753F4802
:100EE0000168E960056003F000FC13E0280000F0F1
:100EF000F7F83078C0060CD509480068296D88429B
:100F000007D1E86E002804D16548017851F010013E
:100F10000170FFE7002004B070BD000004840020D1
:100F20000884002034840020F48300207CB1000871
:100F3000C8B50008A8B1000838B505000C00002DA0
:100F400008D1DFF84C3C40F21F42DFF8981B5E48A6
:100F500000F058FEE868808901F0D8FAC00716D57D
:100F6000200002F090F8002434E0E068808901F06D
:100F7000CDFAC00707D5012001F0C8FAE9688989D0
:100F80000843E96888812000246802F085F8002C75
:100F90000BD0E0684168DFF8FC0B00682A898018F4
:100FA000411A2089091A0029DFD5002C12D0E068E7
:100FB0004168DFF8E00B02682B89D218511A012929
:100FC00008DBE26851680068091A29812989686884
:100FD00000F075FF2C6031BDD4B10008F88300200B
:100FE00090AF0008F08300202DE9F04106000C00CE
:100FF0001D0033E027002468786801F0B9F88046C6
:10100000B6F86600414689B2884208D2DFF8803BD4
:1010100040F25742DFF8801B2B4800F0F3FDB6F892
:101020006600B0EB0808A6F866801E490A88388971
:1010300082180A80380002F02FF8B6F866000028FF
:101040000CD0002C0AD1002D08D1DFF8443B40F22F
:101050006242DFF8481B1C4800F0D4FD002C17D07A
:10106000E168486801F05AFA0700E068808901F0F9
:101070004DFA10F0030F01D0012100E0002120897A
:1010800038180918DFF8180B0068091A0129B1DBB4
:101090002000BDE8F08100007C8300200C8400204B
:1010A0003D840020328400201084002028C10008E4
:1010B000F0B50008D4BC000839840020F4BC000856
:1010C000E883002044C1000878B5000814BD00087A
:1010D000CCC3000888C500086483002034BD000824
:1010E0002DE9F84306000024002E09D1DFF8A03ACC
:1010F00040F27B42DFF8AC1ADFF8AC0A00F082FD68
:10110000307D042809DADFF8883A40F27C42DFF8C3
:101110009C1ADFF8940A00F075FDB0480078C0060C
:1011200040F19D81B6F86000B16D0918DFF8642ABE
:10113000736D10681B1A002B18D4706D13689842D9
:1011400006D1B36DDFF8580A00681B1A002B0DD4C6
:10115000B06DDFF84C3A1B6898421DD1B6F86000BC
:10116000DFF84C3A1B68DB89984215D2DFF8400A59
:101170000068C089A6F86000B6F86200B6F8603072
:10118000984203D2B6F86000A6F862001068706555
:10119000DFF80C0A0068B065DFF8045A2A68706C42
:1011A000121A012A46DADFF80C0A008800283AD120
:1011B000B06DB6F860208018884234D1B6F930009E
:1011C000002830D4706C296888422CD1012496F80C
:1011D000430096F84310491CC9B2884204D296F8DD
:1011E0004300401C86F8430096F84300042813DBB4
:1011F000B6F84810708E4118B6F8480089B281429E
:1012000006D3B6F84810708E4118A6F8481003E0CF
:101210004FF6FF70A6F8480096F84300032802DB5B
:10122000300002F090FF002C40F0EC80002086F8A7
:101230004300E7E02968706C091A491E002900F193
:10124000DE802968306D091A012980F2D880B07ECD
:1012500040070BD5718B4FF6FB7001407183B6F8D8
:101260004A00A6F848000020A6F86A00002086F888
:101270004200B6F93C00C010B6F93E104018A6F87E
:1012800040002968706C081A002186F8431029680C
:101290007164317D04295FDBB6F84810B6F84A2046
:1012A000914226D2718B090501D5012100E002216E
:1012B00002000B00DBB2748E13FB04F392B29BB2FC
:1012C0009A4203D3C9B2708E11FB00F0B6F84810F1
:1012D0004118B6F8482089B2914205D3B6F84810B3
:1012E0004018A6F8480003E04FF6FF70A6F8480043
:1012F00032E0B6F86A104118B6F86A2089B2914215
:1013000005D3B6F86A104018A6F86A0003E04FF655
:10131000FF70A6F86A00B6F86A00B6F8481088426E
:101320001AD3B6F86A10B6F84800091AA6F86A1077
:10133000B6F84810708E4118B6F8480089B281425C
:1013400006D3B6F84810708E4118A6F8481003E08E
:101350004FF6FF70A6F84800F36EDFF85C28316F97
:101360003000FFF741FE3067336FDFF85028F16E31
:101370003000FFF739FEF066306F002803D15FF0D0
:10138000FF30308601E00020308600203077F06E9C
:10139000002802D10020A6F86800B6F86410DFF833
:1013A000200800884118A6F86410708B000529D524
:1013B000306F002814D1F06E002808D0F06EC1689C
:1013C000486801F0ABF8F16C081A01281ADA718B41
:1013D0004FF2FF700140718314E000BF3C84002095
:1013E000306FC168486801F099F8F16C081A01285B
:1013F00008DA718B4FF2FF700140718302E0300018
:1014000003F01EF8706B002829D0B16B2868091A08
:10141000002924D5DFF8AC070168706B081A00B208
:10142000B6F93C10B0EBE100B18F4118B187010073
:1014300009B2002901D500B2404200B2B6F93E100F
:10144000B0EBA100F18F4018F087B6F93C00C01056
:10145000B6F93E104018A6F8400000207063DFF88F
:101460005487B8F80000002800F00B83307D07286F
:1014700080F20783DFF81C77716A3868091A491E01
:1014800000295CD4716A3868091AB8F80000091A92
:10149000491C012953DADFF830476568706AD7F8CC
:1014A0000090B0EB09096068002809D1DFF8E03648
:1014B00040F29452DFF81417DFF8EC0600F0A2FBBC
:1014C0004FF6FF70814509D3DFF8C43640F29552DC
:1014D000DFF8FC16DFF8D00600F094FB60680089A6
:1014E000494689B2884209D2DFF8A43640F29752C1
:1014F000DFF8E016DFF8B00600F084FB2089B0EBDF
:101500000900208160680189B1EB090106E0688962
:10151000B9EB00092981002068812D6868894A4655
:1015200092B29042F3D31FFA89F94946280000F09D
:1015300067FD706A3860E0683968416008E03968C2
:10154000706A091A002903D5708B50F0020070836D
:101550003968706A091A002900F18F823968706A47
:10156000091A308D091A491C012980F28682706A95
:101570003968884240F09C81DFF84C56E8688089E1
:1015800000F0C4FF10F0030F01D0012000E00020A4
:1015900029894018A8F80000308DB8F8001088425A
:1015A00046D2E868808900F0B1FFC0070FD5E8682F
:1015B000808900F0ABFF10F03E0000F0A7FFE96863
:1015C0008A894CF2FF010A401043E9688881308D16
:1015D0002881E868808900F099FF800702D5288972
:1015E000401E28812989686800F069FCE8688089C4
:1015F00000F08CFF10F0030F01D0012000E000206C
:1016000029894018A8F800003868B8F8001010FAC6
:1016100081F0716A328D8918884209D0DFF87035FF
:1016200040F2CC52DFF8B015DFF87C0500F0EAFAA2
:10163000706F002800F08680E868808900F066FFFF
:10164000C00709D5706F00287CD0706F716F096872
:10165000716701F021FDF5E7746F25E000201BE0C4
:10166000E068808900F052FFC00719D5E8688089DA
:1016700000F04CFF800713D4012000F047FFE96819
:1016800089890843E9688881E868808900F03EFF1D
:1016900010F0030FE2D0012029894018A8F80000BB
:1016A0002000246801F0F8FC002C0BD0E0684168B1
:1016B0003868B8F8002010FA82F0411A2089091A17
:1016C0000029CDD5002C3CD0E16848683968B8F8CD
:1016D000002011FA82F1081A012832DBE068416823
:1016E0003868091A2981E868808900F00FFF8007AF
:1016F00002D52889401E28812989686800F0DFFB0F
:10170000E868808900F002FF10F0030F01D001208B
:1017100000E0002029894018A8F80000E168486826
:101720003968B8F8002011FA82F1814209D0DFF857
:10173000603440F2FD52DFF8A414DFF86C0400F0CE
:1017400061FA74673868B8F8001010FA81F07062B6
:10175000308DB8F80010884209D2DFF8343440F2F6
:101760000762DFF87C14DFF8400400F04BFA318D9B
:10177000B8F80000091A3185300001F0F4F8686803
:101780000089002805D06868DFF858140860002038
:101790006860E868808900F0B9FEC00737D5DFF8D7
:1017A0004804017851F02001017030E06068106059
:1017B00015E00021328D2089121A511A318530002E
:1017C00001F0D1F86068008900280AD0DFF81424FD
:1017D00010680028EAD06168106800F0E6FC00207C
:1017E0006060E068808900F091FEC0070AD5DFF8EC
:1017F000F803017851F020010170307D042801D1F7
:101800000720307520687067200001F045FC706F7C
:1018100000283BD0706FC1684868716A884235D132
:10182000746F706FC16848683860E068808900F044
:101830006DFE10F0030F01D0012000E00020716A5E
:101840002289891840187062E068808900F05EFE85
:1018500010F0030F01D0012000E00020318D22891B
:101860008018814209D2DFF8283340F22C62DFF879
:101870007C13DFF8340300F0C5F9E068808900F0DC
:1018800045FE10F0030F94D0012193E7B07EC0070E
:1018900009D5718B4FF6FE7001407183708B50F04B
:1018A0000200708303E0708B50F001007083FAE057
:1018B000706F002804D1C44801F0FDFB7067D8E0C8
:1018C0000024756F12E0002C35D1E968486839684A
:1018D000081A002825D42C002868002805D1E968BA
:1018E00048683968081A012852DA2D68002D00F07E
:1018F000C080E968486839688142E4D1B2482989E2
:10190000028991420CD201F0D6FB002807D0002CAE
:1019100001D0206000E070672900FFF70DFBA8E010
:10192000A7E0A94801F0C7FB002803D07067290091
:10193000FFF702FB9DE0E16848683968081A401E1D
:101940000028C8D4E96848683968081A401C01288A
:10195000C1DA9D4801F0AFFB8046B8F1000F16D008
:10196000E1684868218941183868091A012908DBAB
:10197000E16848683968081A20812189606800F0A8
:101980009EFAC4F8008029004046FFF7D5FA70E0BF
:10199000E868808900F0BAFDC0076AD48A4801F07F
:1019A0008AFB28602868002863D0E968486829898C
:1019B00041183868091A012908DBE968486839685C
:1019C000081A28812989686800F079FAB8F80000B7
:1019D000396811FA80F1706A091A308D091A0129E3
:1019E00047DB2868C068808900F090FDC00712D5E9
:1019F0002868C068808900F089FD10F03E0000F082
:101A000085FD2968C9688A894CF2FF010A401043A4
:101A10002968C9688881716A308D41183868091A47
:101A200028680181286801892868406800F047FA21
:101A30002868C068808900F069FD10F0030F01D0AC
:101A4000012000E00020296809894018A8F800005A
:101A50003868B8F8001010FA81F0716A328D891870
:101A6000884206D04A4B40F2F9625B494E4800F08A
:101A7000C9F8300002F0E4FC15E0300002F0E0FCB0
:101A800011E044490A68706A121A002A07D40968EA
:101A9000706A091A308D091A491C012903DB708B01
:101AA00050F002007083BDE8F18310B45048018803
:101AB0000288521C02804F4A1068002805D04E4808
:101AC0000B0004889BB2A34205D239480068143049
:101AD00089B2405C04E00088091A1068C9B2405C11
:101AE00010BC704718B60008F8B50400002C06D1E9
:101AF000274B40F27D7241492B4800F083F8404D5E
:101B0000288800283DD03A4E00203080FFE73088FA
:101B10002988884235D2FFF7C8FFC0B200280ED00E
:101B200002280DD0F3D3FFF7C0FF0100C9B202298C
:101B300026DB318851FA80F0801E3080E7E720E014
:101B4000FFF7B3FF042804D128883188891C884214
:101B500000DA16E0FFF7A9FF07003F02FFF7A5FF35
:101B60000743380080B240F21921884203DA380076
:101B700080B2002802D14FF40677FFE76786C6E7F8
:101B8000FFE7F1BD1848017851F01001017070476E
:101B900044A500080484002040B6000854BD000895
:101BA0000884002060C1000878B500087CC10008E6
:101BB000FC8300203484002008C8000810C80008F6
:101BC00032840020E88300207C83002090C6000837
:101BD000A0C60008B0C6000834AB0008DCA90008A5
:101BE00074BD00080C8400203D84002068B6000805
:101BF00030840020008400202E84002098C100083A
:101C00002C8400200EB4C0B5024603A80021019028
:101C1000009101AB0121044878440C3002F0EBFF45
:101C200006BC5DF810FB00BF95A800000120DFF89E
:101C3000E4170870704770B4BDF90C50049C00267E
:101C40000660416002814381057344730121817301
:101C50000021C17370BC70472DE9FC470E0090460F
:101C6000C0B20500404600B2012808D0412806D085
:101C7000B0F5C17F0ED0B0F5207F76D0BFE04246F0
:101C800012B2310089B2002000F0C5F80400200033
:101C9000BDE8F68700245FF000093700082003F054
:101CA00039FF0600002E43D03900EA1C4FF6FC70C5
:101CB0000240D2F5147289B292B2914241D2BA4630
:101CC00000200190404600B2009053469BB23A007B
:101CD00092B2280080B2304410F11001C91C89086A
:101CE00089003000FFF7A7FF307910F0030F09D00B
:101CF000DFF8603740F20112DFF85C17DFF85C07AD
:101D0000FFF780FFADB2ED1CAD08AD00D5F5147541
:101D1000002D09D1DFF83C3740F20312DFF84017FD
:101D2000DFF83807FFF76EFF002C13D1340013E003
:101D3000FFF77CFF002C02D0200000F0AEF900205D
:101D4000A6E715F1030A4FF6FC7010EA0A0ADAF565
:101D5000147AB5E7C9F80060B146B7EB0A07002569
:101D6000380080B2002899D191E7E91C4FF6FC7049
:101D70000140F21C4FF6FC700240511811F11000A6
:101D800089B2320092B2D21C92089200914208D3DA
:101D9000010089B2320092B2D21C920892009142A4
:101DA00001D2002074E780B204F0E7F80400002CB0
:101DB00001D100206CE7002001900FFA88F8CDF8DF
:101DC000008033009BB2320092B2ADB204EB05004A
:101DD00010F11001C91C890889002000FFF72BFFB2
:101DE000207910F0030F09D0DFF8683640F2231293
:101DF000DFF87016DFF86406FFF704FF47E7DFF847
:101E0000543640F22712DFF86016DFF85006FFF76D
:101E1000F9FE00203CE7FEB505000E001700380073
:101E200000B241280DD0380000B2012809D0DFF8F7
:101E300024364FF4A572DFF83416DFF82006FFF7DA
:101E4000E1FE072003F066FE0400002C01D1002013
:101E50000CE0002001903FB2009733009BB23200AB
:101E600092B229002000FFF7E6FE2000FEBD3EB53D
:101E70001C00079BC0B29BB20500ADB2ED1CAD08C3
:101E8000AD0015FA81F5AB4201D2002016E0069BA9
:101E9000002B05D080B2C01C80088000184400E0F0
:101EA00000200223019312B200920B009BB20A00A1
:101EB00092B201002000FFF7BEFE20003EBD70B5CB
:101EC00004000D00002C09D1DFF888354FF4CC72E6
:101ED000DFF89C15DFF88405FFF794FE28002189C0
:101EE00080B2884244D22689761B11E060892D1A7F
:101EF0002089801B20812468002C09D1DFF854350B
:101F000040F2AF12DFF86C15DFF85005FFF77AFEEC
:101F10006089290089B28842E8D3207B10F00F0F36
:101F20001BD12800618980B2884216D0607B80076F
:101F300013D46168091B691889B2200003F061FF9E
:101F40000400002C09D1DFF80C3540F2BD12DFF897
:101F50002815DFF80805FFF755FE658160892081A7
:101F60002068002802D0206800F097F80020206048
:101F700070BD70B504000D001600002C09D1DFF80B
:101F8000D43440F2DF12DFF8F414DFF8D004FFF7A6
:101F900039FE002C02D0B5F5803F01D3012027E0A7
:101FA000002D01D1002023E02900208940180A00DB
:101FB00080B292B2904201D2012019E0207B00064B
:101FC00008D560686D42284414F11002904207D28F
:101FD00001200DE0F6B2002E0BD060686D4228445F
:101FE00060606089081860812089091821810020BB
:101FF00070BD0120FCE780B50022FFF7BAFF02BDEB
:1020000038B504000D00002C09D1DFF8483440F247
:102010004B22DFF86814DFF84404FFF7F3FD002CCF
:1020200002D0B5F5803F01D3012020E0002D01D181
:1020300000201CE0290060890A0092B290420BD275
:10204000DFF8103440F25522DFF83414DFF80C04C6
:10205000FFF7D8FD01200AE06068606828446060EE
:102060006089401A60812089411A2181002032BD97
:1020700080B50B001BB2002B04D509B24942FFF713
:10208000BFFF03E0D2B209B2FFF773FF02BD80B514
:10209000012209B2FFF7ECFF02BDF8B50400002CE5
:1020A0000BD1DFF8B0334FF43772DFF8D013DFF81D
:1020B000AC03FFF7A7FD002059E000250BE0DFF897
:1020C000943340F20F32DFF8BC13DFF89003FFF7D0
:1020D00099FD6D1C3400002C47D0A07B002809D14D
:1020E000DFF8703340F2F122DFF89C13DFF86C0365
:1020F000FFF788FDA07B401EA073A07BC0B2002824
:1021000031D12668207B10F00F00617B890711D543
:1021100027003869002809D1DFF8383340F2FF2260
:10212000DFF86813DFF83403FFF76CFD200039692E
:102130008847CEE70100C9B2022904D12100082056
:1021400003F011FDC5E70100C9B2012904D1210046
:10215000072003F008FDBCE7C0B20028AFD1200083
:1021600003F0FBFDB5E70024B5E72800C0B2F2BDDF
:102170000100002001E0401C09680029FBD180B269
:10218000704780B500280FD0817B491C8173807B0C
:10219000002809D1DFF8BC3240F24232DFF8F012F9
:1021A000DFF8B802FFF72EFD01BD38B504000D00C1
:1021B000002C01D0002D0AD1DFF8983240F25A32BB
:1021C000DFF8D012DFF89402FFF71CFD28E004E0EE
:1021D0002189288941182181246820680028F7D1A5
:1021E00020896189884209D0DFF8683240F2623282
:1021F000DFF8A412DFF86402FFF704FD206800286E
:1022000009D0DFF8503240F26332DFF89012DFF885
:102210004C02FFF7F7FC21892889411821812560AC
:1022200031BD2DE9F84305000C0000260027002DE4
:1022300005D0002C03D02889218988420CD2DFF8F0
:10224000143240F2CA32DFF85812DFF81002FFF7FA
:10225000D9FC7FF00F0081E06889801B6189C91B70
:10226000884204D3B4F80A80B8EB070803E0B5F855
:102270000A80B8EB06084246606800EB0701686810
:1022800000EB0609484603F063FF18EB060618EB5F
:1022900007076889B04209D2DFF8B83140F2D93275
:1022A000DFF80012DFF8B401FFF7ACFC6089B84238
:1022B00009D2DFF8A03140F2DA32DFF8EC11DFF8B2
:1022C0009C01FFF79FFC6089874201D300272468A7
:1022D0006889864205D100262D68002D01D1002C89
:1022E00014D1002C06D060892189884202D120684F
:1022F000002818D1002D06D068892989884202D18A
:10230000286800281CD1002CA6D126E0DFF8443133
:102310004FF47972DFF89411DFF84001FFF772FC97
:102320007FF00F001AE0DFF82C3140F2EA32DFF8DC
:102330008011DFF82801FFF765FC7FF005000DE054
:10234000DFF8103140F2EF32DFF86411DFF80C01F2
:10235000FFF758FC7FF0050000E00020BDE8F283A5
:102360002DE9F04704000D00924600260027002CBE
:102370000BD1DFF8E03040F20A42DFF83811DFF825
:10238000DC00FFF73FFC002042E0002D0BD1DFF81E
:10239000C43040F20B42DFF82011DFF8C000FFF735
:1023A00031FC002034E02BE0B4F80A80B8EB0308DD
:1023B0005046414680B289B2884200D2D046424659
:1023C00092B260689BB200EB0301300080B205EB73
:1023D0000009484603F0BCFE18EB070718EB060699
:1023E000BAEB080A00230AE0180080B20028DBD00C
:1023F0001800618980B28842D6D360891B1A24688C
:10240000504680B2002801D0002CEDD1380080B2B7
:10241000BDE8F0873884002038B515000A0012B2F4
:102420002989C0B2FFF718FC0400002C01D100205C
:102430000EE029002000FFF7F4FE40B2002806D08D
:10244000044B40F224521D490448FFF7DBFB2000F7
:1024500032BD000048A70008A0AE000838B400084C
:10246000E0AC000874B00008BCBF000824C5000838
:10247000DCC20008F4C20008D8BF0008C0C70008CA
:1024800034BC000838C500080CC3000864B9000853
:102490004CC50008C4AA0008D0AE000820C6000839
:1024A00000AF000824C30008F4BF000830C60008CD
:1024B000A0B0000854BC000888B9000860C5000836
:1024C00010B40300C243002A01D0002801D101202A
:1024D0001AE091F82D20920701D4002014E04A68F8
:1024E000904201D100200FE08A6813404C688A684E
:1024F0001440A34207D18A6890438968C94388423F
:1025000001D1012000E0002010BC7047010008004C
:1025100080B2000A50EA012080B270470100080230
:1025200010F47F0050EA01600A00120A12F47F42A0
:10253000104350EA1160704780B503F05DFE8004DF
:10254000800CB0F58040DFF81015088001BD10B593
:102550000400207D012808D1DFF80035D422DFF8FF
:102560000015DFF80005FFF74DFB2100012003F007
:10257000FAFA10BD10B50400207D012808D1DFF85B
:10258000DC34DF22DFF8E014DFF8D804FFF73AFB91
:102590002100022003F0E7FA10BD80B500F0DCFC5A
:1025A000DFF8C8040178491C01700078C00701D524
:1025B00000F076FA01BD38B504000D00002D08D1F9
:1025C000DFF89834FF22DFF8A814DFF89804FFF74B
:1025D00019FB05E0E06FA84201D10020E067E46844
:1025E000002CF7D131BD38B50400002C09D1DFF83B
:1025F0006C3440F21112DFF87C14DFF86804FFF746
:1026000001FB207D012809D0DFF850344FF4897296
:10261000DFF86414DFF84C04FFF7F4FA012508E052
:102620002100DFF8580450F825000068FFF7C3FFC9
:102630006D1C042DF4D331BD3EB504000D00002CFB
:1026400009D1DFF818344FF4AF72DFF83414DFF833
:102650001404FFF7D7FAEDB2002D4ED0207D0428E8
:1026600002D0207D072848D1A06F002803D1208DFB
:10267000B0F5066F41D0A07EC00609D4DFF8DC3388
:102680004FF4B272DFF8FC13DFF8D803FFF7BAFAA1
:10269000208B0290E08A0190201D00902300626A46
:1026A000216D200001F084FE200000F041FEDFF8E3
:1026B000D8030168A14203D10168C968016009E03B
:1026C000006800E0C068002804D0C168A142F9D1C8
:1026D000E168C1600020E0600120DFF8B0130870FD
:1026E000DFF8AC030068A04202D1FFF74BFA02E02A
:1026F0002000FFF72CFF002022E0207D002803D0DF
:1027000002282AD01DD335E0E08A002814D0DFF853
:1027100084030168A14203D10168C968016009E02E
:10272000006800E0C068002804D0C168A142F9D167
:10273000E168C1600020E0602000FFF708FF002092
:102740003EBD2000FFF74FFF2100DFF84C0300F0F3
:102750002BFE2000FFF70EFFF1E72100DFF8280332
:1027600000F022FE0120DFF8241308702000FFF79C
:10277000EEFEE4E7200000F001F8E1E738B50400E0
:10278000002C09D1DFF8D4324FF4CE72DFF8E41216
:10279000DFF8D002FFF736FA207D032804D00428A2
:1027A00016D007281FD029E0200001F0EBF8050023
:1027B000280040B2002801D105202075280040B231
:1027C00000281DD1200001F0D9F9280040B232BD07
:1027D000200001F0D7F80500280040B2002801D100
:1027E00005202075EAE7200001F0CCF8050028005C
:1027F00040B2002801D109202075DFE70020E6E77C
:1028000028005FF0FF3140B28842DED1608B50F08B
:10281000080060830020DAE780B500280CD1DFF8DB
:102820003C324FF4F472DFF87412DFF81C07FFF744
:10283000E9F97FF00F0009E0017D012903D0418B08
:1028400051F0100141830121FFF7F6FE02BD2DE991
:10285000FE4F04008B46002C0AD1DFF8003240F214
:102860003D22DFF8E816DFF8FC01FFF7CBF973E053
:10287000207D012809D1DFF8E43140F24122DFF860
:10288000D016DFF8E001FFF7BDF9207D0A2808D156
:102890002100DFF8C00600F087FD2000FFF757FE9B
:1028A0005AE000250026276DD4F82480D4F89090B3
:1028B000D4F810A0207D002818D1E08A002820D06C
:1028C000DFF8D0010168A14203D10168C968016045
:1028D00009E0006800E0C068002804D0C168A14297
:1028E000F9D1E168C1600020E0600AE05D46E68A57
:1028F0002100DFF8940100F057FD0120DFF88C1172
:102900000870206F002802D0206F00F0BCFBE06E42
:10291000002802D0E06E00F0B6FB606F002802D005
:10292000606F00F0B0FB002D0BD0208B0290B6B290
:102930000196201D0090230042463900200001F03E
:1029400037FD207D2000FFF702FE4846002803D017
:102950007FF00C015046C847BDE8F78F80B50121D4
:10296000FFF775FF01BD38B50400002C08D13B4BC3
:1029700040F2A632DFF8E818DFF8CC05FFF742F99D
:10298000606A218D4018618E40F23142914202DB33
:102990004FF4866100E0618EE26A821A511A0029C2
:1029A00004D4218D6185E16A401A18E0616AE06A09
:1029B000091A012902DB002060850FE0E06A656AE0
:1029C000451BB5F5803F08D3244B40F2B632DFF803
:1029D0009418DFF87405FFF715F96585002032BDFE
:1029E00038B504000D00002C09D11C4B40F2CF3249
:1029F000DFF87418DFF85005FFF704F92AE0207DAE
:102A0000012808D1154B40F2D332DFF86018DFF807
:102A10003805FFF7F7F8208D2D18280080B240F612
:102A20006101884204DA2800218D80B2884203D2F5
:102A30004FF40660208500E025852000FFF793FF16
:102A4000B0F5067F06D3608B50F002006083200053
:102A500001F094F831BD00009C00002090A7000810
:102A600074C5000860B4000810C000083A84002053
:102A700088B40008CCC700083CC3000870C6000832
:102A800074BC00082CC00008F483002039840020A6
:102A900010840020EC830020F083002054C3000841
:102AA0002DE9FE4F0020DFF8F4783868401C3860CC
:102AB000DFF8EC8898F80000401C88F8000038E047
:102AC000D9F80000A84209D0DFF82C3A40F2715240
:102AD000DFF8D018DFF87004FFF794F8E868C9F859
:102AE00000005FFA8AFABAF1000F0BD0288B02902F
:102AF000E88A0190281D00902B006A6A296D280041
:102B000001F056FCD5F810A0287D2800ED68FFF7ED
:102B10001EFDDFF880B900208BF80000300000288F
:102B200003D07FF00C015046B0479BF8000000280E
:102B300007D00024DFF83499D9F8005001E02C00C8
:102B4000ED68002D00F0B881287D002809D1DFF85C
:102B5000A83940F2BE42DFF84019DFF8EC03FFF776
:102B600051F8287D012809D1DFF88C3940F2BF42A5
:102B7000DFF82819DFF8D003FFF744F8287D0A288A
:102B800009D1DFF874394FF49862DFF81419DFF8CF
:102B9000B803FFF737F8A87F98F800108842CED026
:102BA00098F80000A8775FF0000B5FF0000A287D1E
:102BB000022806D195F84200062802DB1BF1010B22
:102BC000CCE095F842000C2802DB1BF1010BC5E0BC
:102BD00095F89900002860D0286F002809D0DFF808
:102BE000183940F2D442DFF81419DFF85C03FFF71C
:102BF00009F8E86E002809D1DFF8FC3840F2D54228
:102C0000DFF83419DFF84003FEF7FCFF95F89A006F
:102C10000C2802DB1BF1010BA0E0DFF8200995F87E
:102C20009910084410F8010C95F898100200D2B2DF
:102C3000914204D295F89810491C85F8981095F89F
:102C40009810C0B28142C0F089800126B5F86000BA
:102C5000002806D1280001F085FC00280ED00026AF
:102C60000CE0B5F86010280000F08EFD002805D1BA
:102C7000280000F083FF002800D10026002E6DD030
:102C8000002085F8980095F89900072866D295F8F5
:102C90009900401C85F8990060E0B5F930000028E3
:102CA00008D4B5F9300047F6FF71884202D0288E6B
:102CB000401C2886B5F93000B5F9401088424DDB3C
:102CC000280001F079F9002805D0286F002845D1A7
:102CD000E86E002842D0287D02281AD095F84200DC
:102CE0000C2802D295F8420000E00C20B5F93C1007
:102CF000C910B5F93E208918DFF88C28C0B21056EB
:102D000011FA00F047F6FF71884200DB0800A5F8D1
:102D1000400000202886B5F84800B5F860108842C9
:102D200002D2B5F8480001E0B5F8600080B2400872
:102D3000A5F84A00B5F84A00698E490089B2884270
:102D400003D2688E4000A5F84A00688EA5F84800B6
:102D50000020A5F86A00280001F079F9287D0628EE
:102D600009D1A87EC00606D53968286A091A29291A
:102D700001D31BF1010B687A000734D5287D0428A4
:102D800002D0287D07282ED1D5F89410DFF8FC0753
:102D900041184FF4FA70B1FBF0F13A68286A121A40
:102DA000914204D21BF1010B1AF1010A1BE0D5F884
:102DB000941095F89B20DFF8D80700FB02114FF420
:102DC000FA70B1FBF0F13A68286A121A91420AD2FD
:102DD000280001F091FB40B2002804D195F89B0037
:102DE000401C85F89B00686F00280CD03968286A61
:102DF000091AB5F94000062210FB02F0814202D305
:102E0000280000F0FDFB287D032806D13968286AD8
:102E1000091A292901D31BF1010B287D092806D1A4
:102E20003968286A091AF12901D31BF1010B5FFAED
:102E30008BFBBBF1000F17D0D5F89060280000F095
:102E400077FA002C3FF43CAED9F80000854208D157
:102E5000DFF8A43640F26D52DFF838173A48FEF733
:102E6000D1FEE868E0603CE62C00ED68207F401C65
:102E70002077207F617F8842FFF463AE00202077B7
:102E8000DFF8106600203070D4F88C00002806D0DF
:102E900021002069D4F88C209047010000E0002137
:102EA000307800287FF445AE49B200297FF449AE5E
:102EB000200000F063FE44E60024264E356811E051
:102EC0003068A84208D0DFF8303640F2B352DFF85D
:102ED000C8161D48FEF796FEE86830602800ED68C9
:102EE000FFF735FB002D2CD0287D0A2808D0DFF80D
:102EF000083640F2A152DFF8A4161348FEF782FE0E
:102F000000213A68286A121AF12A00D3491CC9B272
:102F1000002913D0280000F00BFA002CD0D0306824
:102F2000854208D1DFF8D03540F2AF52DFF8701695
:102F30000548FEF767FEE868E060CFE72C00ED6823
:102F4000D0E7BDE8F78F000060B4000848C0000873
:102F500014AD0008F8830020F8B5DFF84454287851
:102F6000401C287029E02878A077A07EC0070BD5E8
:102F7000608B50F002006083200000F0FFFD618B49
:102F80004FF6FC7001406183A07E000707D5618B7E
:102F90004FF6F770014061832000FFF7EFFBE66812
:102FA000A06F00280DD0DFF8EC74002038702000EE
:102FB00000F011F83878002803D0DFF8E80504683D
:102FC00000E03400002C05D0A07F29788842CAD1C7
:102FD000E468F7E7F1BDF8B50400002C0CD1DFF888
:102FE000183540F20962DFF8C015DFF8C005FEF7BA
:102FF00009FE7FF00F0045E0A06F467BA56F002023
:10300000A067D4F88400002807D000232A002100FC
:103010002069D4F88470B84705E000232A00210015
:10302000002000F069F8010049B200291DD1B00666
:1030300027D5208DB0F5066F02D0208D401C20854D
:10304000D4F88400002808D0002300222100206941
:10305000D4F88440A047010000E000217FF00C007C
:10306000020049B291420CD10CE07FF00C010A0041
:1030700040B2904201D1080004E0A5677FF004004F
:1030800000E00020F2BD10B503E0046800F004F891
:1030900020000028F9D110BD10B50400002C09D083
:1030A0006068002802D06068FEF7F7FF2100032067
:1030B00002F059FD10BD70B50500002D09D1DFF8F3
:1030C000383440F28262DFF8E814DFF8E004FEF7FB
:1030D00099FD032002F01EFD0400002C01D1002008
:1030E00009E0102226002900300003F031F8606862
:1030F000FFF747F8200070BD10B508001400002845
:103100000CD1DFF8B0344FF4D362DFF8AC14DFF841
:103110009C04FEF777FD7FF00F0008E0002C07D03D
:103120002189FFF75DFC2000FEF7B7FF002010BDEE
:103130005BB2002BFAD1FFF76FFBF8E7000038B560
:103140000100C9B2802901DB7F20FFE70100C9B27D
:10315000002923D0441E00230020DFF8481409680A
:1031600016E04A7D2500EDB2AA420AD34A7D250029
:10317000EDB2AA420BD1894A15680A6AAD1A9D427E
:1031800005D3864800680B6AC31A08004C7DC968DD
:103190000029E6D1002801D0FFF7E0FB31BD70B572
:1031A00004002000C0B208280DD02000C0B20928B9
:1031B00009D0DFF8003440F2DD62DFF80014DFF8F8
:1031C000EC03FEF71FFD00230022DFF8D8030068A0
:1031D0000FE0017D2500EDB2A94209D16F4D2E68A7
:1031E000016A761A9E4203D32968036ACB1A020049
:1031F000C0680028EDD1002A03D000211000FFF79D
:1032000026FB70BD38B500230020DFF8B413096831
:103210000AE0624C25680A6AAD1A9D4203D3206811
:103220000B6AC31A0800C9680029F2D1002801D02E
:10323000FFF794FB31BD10B5DFF8680300680BE0C1
:10324000C468817E090706D5428B4FF6F7710A40A4
:103250004283FFF793FA20000028F1D110BD00004F
:10326000ACB9000864C000086CC30008B0B4000822
:1032700070B50500012002F04DFC0400002C23D1A4
:10328000FFF7D9FFFFF7BEFF012002F043FC040067
:10329000002C19D10920FFF782FF012002F03AFC2F
:1032A0000400002C10D10820FFF779FF012002F064
:1032B00031FC0400002C07D12800C0B2FFF73FFF0B
:1032C000012002F027FC0400002C2FD09C210022BA
:1032D0002600300002F0DEFF65754FF48660A4F82A
:1032E00064004FF406616185618D2185FF21E172E3
:1032F0004FF4067161860621A4F840100621E1878B
:103300005FF0FF3121860121A4F8481023490968A4
:10331000216223490978A177A4F84A00DFF8A402C2
:10332000C4F88400DFF8A002C4F89400200070BD47
:1033300010B50400002C07D16F4B40F65102A34991
:103340009A48FEF75FFC26E0207D002823D0207DF0
:103350000A2820D0207D01281DD0A06F002804D08D
:10336000A06FFEF79AFE0020A067606F002802D0D1
:10337000200000F045F95FF0FF302086E06EFFF797
:1033800082FE206FFFF77FFE0020E066E06E206780
:103390000020A4F8680010BD00000000E8830020B1
:1033A0003B84002050B1000838B505000C00002C0B
:1033B00006D1804B40F6830285497C48FEF722FC0B
:1033C000002D06D17B4B40F6840282497748FEF7F8
:1033D00019FC2868A04203D12868C068286009E069
:1033E000286800E0C068002804D0C168A142F9D173
:1033F000E168C1600020E0602000FFF799FF207DB8
:103400000A280CD0207D012809D0A07EC00706D54F
:10341000608B50F002006083200000F0AFFB207D45
:1034200001281DD0E06E002806D0624B40F69302C2
:1034300069495E48FEF7E6FB206F002806D05D4B29
:1034400040F6940265495948FEF7DCFB606F00289E
:1034500006D0584B40F6960261495448FEF7D2FB1D
:10346000002020750020E08231BD0000F4830020A0
:1034700080B5002806D14F4B40F6AF0259494B4862
:10348000FEF7C0FB58490A685848006882180A606D
:10349000086802BD39840020CCB00008F8B00008EC
:1034A00030AF000838B505000C00002A06D1414BAA
:1034B00040F6C5024E493D48FEF7A4FB002C02D160
:1034C000280080B217E0A18C080080B2002810D03C
:1034D000282002000B0092B29BB29A4201D2081A35
:1034E00000E000202900020089B292B2914200D38C
:1034F0000500280080B232BD90A7000848AD000842
:1035000070B505000C00002D06D12A4B4FF4106257
:1035100038492648FEF776FB04E0E6682000FFF70E
:103520001DFA3400002C05D0206829688842F4D0A8
:10353000E468F7E770BD0000FCAA000800C80008B6
:1035400038B504000D00002C1DD0206800281AD0CA
:10355000144801682000FFF7D3FF274801682000C6
:10356000FFF7CEFF002D0ED0286800280BD023488F
:10357000006806E001682268914201D12968016073
:10358000C0680028F6D131BD60C60008B84C0A00FA
:10359000F824010024B1000800B5000860AF00085D
:1035A000D8B40008F483002028B5000860B40008EF
:1035B00080C0000890A700089CC0000850C6000802
:1035C000F8830020F930000800DD6D00B8C0000865
:1035D000D4C0000894BC000884C30008F0C00008F0
:1035E0009CC300080CC1000808000020E8830020EC
:1035F00050B500087CAD0008EC830020F08300206B
:1036000010B50400606F002804D0606FFFF73BFD29
:103610000020606710BD30B50168846842184168B9
:1036200002EB5103C90703D54C4401E0491C08D102
:103630009A4218BF12F9011B01D10C3030BD12F8AB
:10364000015B002904F8015BF0D4491EF7D5EFE7D0
:1036500080B5002806D0017A002903D0007A02F054
:10366000D8FF02E0100001F0E9F802BD2DE9F047B3
:1036700005000E0091469A46002D08D1DFF864330C
:10368000A322DFF86413DFF86403FEF7BBFA002E11
:1036900008D1DFF85033A422DFF85413DFF84C03CD
:1036A000FEF7B0FA089F17F001085FEA8808B8072C
:1036B00001D5002000E00020390701D5002100E0FD
:1036C0000021FA0601D5002200E0002210EB0808D4
:1036D00011EB080812EB0808032002F01BFA0400A3
:1036E000002C04D13000FEF7D8FC00204AE0A7727D
:1036F00000202060666030894146C9B289B28842A4
:1037000008D2DFF8E032B022DFF8E812DFF8DC029E
:10371000FEF778FA31894046C0B2091A2181142196
:103720003000FEF768FC002804D02000FFF7B4FC4E
:10373000002027E060684068E060E88AFEF7E6FE67
:10374000E1680880288BFEF7E1FEE168488050467A
:10375000FEF7E4FEE16848605FFA88F85FEA9808DF
:103760005FFA88F818F105085FFA89F959EA08390B
:10377000484680B2FEF7CAFEE16888810020E16811
:1037800048822000BDE8F0872DE9F84F0600884602
:10379000002400200020002E07D1924B40F24B3233
:1037A000DFF8281B9148FEF72DFAF76E002F02D1A3
:1037B0005FF0FF306BE0404680B200280AD1894BB1
:1037C00040F25332DFF8081B8848FEF71BFA7FF0FF
:1037D00005005CE04046398980B2884201D3002070
:1037E00055E0708E414689B2884207D27D4B40F247
:1037F0005B32DFF8E01A7D48FEF704FA38890028CA
:1038000007D1784B4FF45772DFF8381B7748FEF733
:10381000F9F997F80A9019F0010B5FEA8B0B5FEA50
:10382000897001D5002000E000205FEA097101D510
:10383000002100E000215FEAC96201D5002200E01A
:10384000002210EB0B0B11EB0B0B12EB0B0BB7F871
:1038500008A0BAEB080A4FF420725AFA8BF189B229
:103860003620FEF7F9F90500002D12D1002C07D003
:103870005C4B4FF47672DFF8341B5C48FEF7C2F9FC
:10388000002D02D02800FEF708FC5FF0FF30BDE8F5
:10389000F28F786800893B89C31A18EB03039BB247
:1038A000524692B268685FFA8BFB00EB0B017868B6
:1038B000FEF756FD514689B28842D7D1F868808913
:1038C000FEF724FE83461BF03F0B00245FEA0B70DB
:1038D00003D51BF0F70B54F008045FEACB7003D557
:1038E0001BF0FE0B54F00104F9684868FEF716FE61
:1038F0005FFA89F9CDF8009010FA88F32200D2B26D
:1039000029003000FFF7B2FE0400002CAED078682A
:10391000FEF72EFCB6F86610081AA6F8660078685E
:103920000189B1EB0A0189B27868FEF7C8FA3889D3
:10393000B0EB0A0AA7F808A05FFA8BFB584680B2E2
:10394000FEF7E4FDF96889890843F9688881786899
:10395000FEF70EFCB6F866104018A6F86600606820
:10396000FEF706FCB6F866104018A6F86600386840
:1039700020603C602068002802D10020A6F8680082
:10398000002084E738B50400002C07D1154B40F225
:10399000EB32DFF8A81A1548FEF734F9E06E00287C
:1039A0001AD0E56E00E02D6828680028FBD1E86891
:1039B0008089FEF7ABFD10F0070F0DD10120FEF757
:1039C000A5FDE96889890843E9688881608B50F022
:1039D00020006083002003E00121200000F00CF8AB
:1039E00032BD000090A5000894BD000890B6000804
:1039F000D0B90008E4C300082DE9FC4104000D0023
:103A00000026002015F0030F09D1DFF8E03A40F25C
:103A10001242DFF8DC1ADFF83C0BFEF7F3F8002C5B
:103A200009D1DFF8C83A40F21342DFF8C81ADFF8CC
:103A3000240BFEF7E7F8A80700D5012616F00107CA
:103A4000BF00B00701D5002000E00020310701D5FC
:103A5000002100E00021F20601D5002200E0002252
:103A6000C719CF19D7194FF420723900C9B289B2DA
:103A70003620FEF7F1F88046002806D1608B50F022
:103A8000800060835FF0FF3075E0B8F80A00FFB295
:103A9000BFB2B84209D2DFF8543A40F23A42DFF8F6
:103AA000B81ADFF8B00AFEF7ADF8F6B20096E36D8B
:103AB0002A00D2B241462000FFF7D8FD06000028B8
:103AC00006D1608B50F0800060835FF0FF3052E0E1
:103AD000307B10F0030F09D0DFF8103A40F2424279
:103AE000DFF8781ADFF86C0AFEF78CF830890028C6
:103AF00009D0DFF8F83940F24342DFF8641ADFF802
:103B0000540AFEF77FF8E06E002801D1E66606E071
:103B1000E16E00E0096808680028FBD10E60002013
:103B2000A4F8680015F0030F02D0E06D401CE065BA
:103B3000E80703D5608B50F0200060837068FEF7C3
:103B400017FBB4F866104018A4F86600B4F86600D5
:103B500000280FD0206F00280CD1E06E002809D17A
:103B6000DFF8883940F26642DFF8E81ADFF8E40946
:103B7000FEF748F80020BDE8F68100002DE9F04787
:103B80000500002D09D1DFF8643940F2E142DFF889
:103B9000C81ADFF8C009FEF735F8287D012809D1D9
:103BA000DFF8483940F2E442DFF8B01ADFF8A40940
:103BB000FEF728F8DFF8A80A0068A84201D1002023
:103BC000F8E0B5F86000B5F84810884202D2B5F8C0
:103BD000608001E0B5F84880EC6E002C07D1A87E2B
:103BE000800703D5280000F02BFCE3E0DCE02A1D71
:103BF00029002800FFF72CFD0600002E02D17FF0DF
:103C00000300D7E0002D02D0286800280BD1002E39
:103C100001D0301D00E00020002802D17FF0030019
:103C2000C8E000682860E1684868FEF777FC696CC6
:103C3000401A2189401880451BD2B5F860008045A4
:103C40000FD1286F00280CD195F89900002808D1D1
:103C5000002085F89800012085F89900002085F85B
:103C60009A00A87E800703D5280000F0E9FBA1E0B8
:103C70009AE0002085F899002F6F002F04D000E013
:103C80003F6838680028FBD1002C00F08780E1688D
:103C90004868FEF743FC696C401A2189401880454A
:103CA0007CD3E0688089FEF731FC400709D5DFF856
:103CB0003C3840F23752DFF8AC19DFF89808FDF7CE
:103CC000A1FF286F002817D0A87E10F0440F13D151
:103CD000E86E002808D0E86E006800280CD1E86E75
:103CE0000089698E884207D2B5F86400002803D0A5
:103CF000B5F86600092801DB012000E0002000285B
:103D000003D1A87E10F0A00F48D0287D022807D04C
:103D10001020FEF7FBFBE16889890843E168888190
:103D200032002900200000F09BF8010049B2002970
:103D300042D12068E866287D022804D0698B4FF6BE
:103D4000FC7001406983E1684868FEF7E7FB814643
:103D5000E0688089FEF7DAFB10F0030F32D0012112
:103D6000208919EB00000818296D091A002900D5CF
:103D70002865E0688089FEF7C9FB10F0030F23D0A7
:103D8000012021894018002850D000202060286F91
:103D900000281BD12C672700EC6E75E7E86E002821
:103DA00002D10020A5F86800698B4FF67F700140B2
:103DB00069830020BDE8F087698B51F08001698339
:103DC00040B2F7E70021CBE70020DAE7E168486876
:103DD000FEF7A4FB8146F9684868FEF79FFBB9EB44
:103DE0000009B9F1000F1ED515F1700901E0D9F8ED
:103DF0000090D9F8000000280FD0D9F80000C16861
:103E00004868FEF78BFB8246E1684868FEF786FB50
:103E1000BAEB000ABAF1000FE9D4D9F8000020602B
:103E2000C9F80040B8E73C603F68B5E72000FFF7FD
:103E300033F9B1E710B50400002C09D1DFF8AC3636
:103E400040F29A52DFF82018DFF80807FDF7DAFE93
:103E50006068807B012801D0012000E0002010BDB7
:103E6000FEB504000D001600002C09D1DFF87C36E9
:103E70004FF4B762DFF8F417DFF8D806FDF7C2FE9B
:103E8000002D09D1DFF8643640F2B952DFF8E017AF
:103E9000DFF8C006FDF7B6FE002E09D1DFF84C367C
:103EA00040F2BA52DFF8CC17DFF8A806FDF7AAFEF9
:103EB0002000FFF7BFFF002801D000207BE0686AE8
:103EC000FEF72CFBE1688860688DFEF71FFBE16858
:103ED000C881686A698D4018E862E06810F11407CB
:103EE000A07AC0070CD52A1D31004FF40670FFF7E9
:103EF000D9FA80B250F00170FEF710FB38603F1D18
:103F0000B5F93000002801D500202886686B00280C
:103F100008D1DFF8640700686863E1684868FEF765
:103F2000FDFAA863E16860684068081A6168498919
:103F3000091A6268518161680989081A61680881F3
:103F4000E068616848600020E1680882A07A10F0AB
:103F500001008000A17A890701D5002100E000213D
:103F6000A27A120701D5002200E00022A37ADB0624
:103F700001D5002300E00023D4F80CC060440844BD
:103F8000104418441430874209D0DFF8603540F2FD
:103F90001C62DFF8E816DFF8BC05FDF733FE029679
:103FA00006200190A87A0090EB7A2A1D290060680B
:103FB00000F080FD40B2FEBD70B50400002C09D1B8
:103FC000DFF8283540F26362DFF8B416DFF88405C5
:103FD000FDF718FE206F002802D17FF0050035E0C4
:103FE000256F00E02D682868002807D02800FFF71B
:103FF00021FF0028F6D07FF0050027E02800FFF71A
:1040000019FF002802D07FF005001FE0E06E286055
:10401000206FE06600202067608B50F400606083B2
:10402000E9684868FEF77AFA0600E8688089FEF7D2
:104030006DFA10F0030F01D0012000E00020298963
:1040400071184018E06400206063002070BD10B556
:104050000400002C09D1DFF894344FF4D362DFF868
:104060002416DFF8F004FDF7CDFD94F84200FF2898
:1040700004D094F84200401C84F842002000FFF76E
:104080007DFD10BD10B50400002C09D1DFF85C34B3
:1040900040F2AD62DFF8F015DFF8B804FDF7B2FDCD
:1040A0002000FFF789FF002802D12000FFF7CFFF93
:1040B00010BD0000F8B50400002C09D1DFF82C3445
:1040C00040F2C162DFF8C415DFF88804FDF79AFDFD
:1040D000206F002802D17FF0050033E0256F280013
:1040E000FFF7A8FE002802D07FF005002AE028682C
:1040F000206714F16C0600E03668306800280CD0A8
:104100003068C1684868FEF709FA0700E96848683E
:10411000FEF704FA3F1A002FEED4306828603560AD
:104120002868002802D10020A4F8680094F8420012
:10413000FF2804D094F84200401C84F8420000207C
:1041400060630020F2BD10B50400002C09D1DFF837
:104150009C3340F2F962DFF83815DFF8F803FDF719
:1041600051FD206F00282FD0A07E40072CD42000C6
:10417000FFF7A0FF002827D1B4F84800B4F860107A
:10418000884202D2B4F8480001E0B4F8600002218D
:1041900090FBF1F0A4F84A00B4F84A00618EB0EB4D
:1041A000410F03D2608E4000A4F84A00B4F84A10D0
:1041B000628E032042435018A4F84800608B50F0F0
:1041C000040060830020208610BD00002DE9F84F18
:1041D00082468846110099464FF4207211EB08017F
:1041E000143189B22220FDF737FD0400002C42D0A3
:1041F0006089414689B21431884207DABB4B40F2EC
:104200002472DFF89014D348FDF7FCFC0D9D0C9E42
:104210000B9F0A98D4F804B080B2FEF777F9ABF898
:104220000000380080B2FEF771F9ABF80200CBF85D
:1042300004905046FEF772F9CBF808005FFA88F850
:104240005FEA98085FFA88F818F10508F6B256EAAE
:104250000836300080B2FEF759F9ABF80C002800A0
:1042600080B2FEF753F9ABF80E000020ABF8100057
:104270000020ABF812002000BDE8F28FF8B584B042
:1042800004000D0016001F00002C07D1974B40F2D0
:104290004272DFF80414AF48FDF7B4FC608D039060
:1042A00010200290208B0190E08A00903B003200A9
:1042B00092B2290089B2606AFFF788FF002803D014
:1042C000616A628D8918E16205B0F0BDF4B9000839
:1042D00018BA0008C0C6000870B50C00160000250A
:1042E000002C07D1814B40F25672DFF8B013994889
:1042F000FDF788FC616811F1140016F001029200CC
:10430000B30701D5002300E00023340701D50024C2
:1043100000E00024F60601D5002600E00026ADB23C
:1043200001EB850111441944214431441431884280
:1043300006D06E4B40F27572D0498648FDF762FC9C
:1043400070BD0000D0C60008FEB505000C001600C8
:104350001F00002C06D1654B40F28772D0497D4882
:10436000FDF750FC3A0031002800FFF771F90028F2
:1043700002D17FF0030512E0002D02D0EB7AA97A7A
:1043800001E0FF230021029006200190C9B20091B4
:10439000DBB23A003100200000F08CFB0500200069
:1043A000FDF77BFE280040B2FEBD0000E4C7000818
:1043B0002DE9FF470700894616001C00002C06D196
:1043C0004A4B40F2C472B7496248FDF71BFC0C9D92
:1043D000002D06D1454B40F2C572B3495D48FDF74B
:1043E00011FC5FF0000846F2080A4846FEF796F80E
:1043F0001FFA8AFACDF80CA014210291BDF83810EA
:104400000191BDF834100091030000224146C9B269
:1044100089B23000FFF7DAFE0600002E0CD04346CA
:10442000DBB2002231003800FFF756FF2B002200DC
:1044300031003800FFF788FFBDE8FF87B4C10008EE
:10444000F8B5040000260027002C06D1274B40F2C7
:10445000EA7296493F48FDF7D5FB16F00105AD001D
:10446000B00701D5002000E00020310701D5002170
:1044700000E00021F20601D5002200E000224519EB
:104480004D195519206DFEF749F803000022EDB2D1
:10449000290089B22000FFF7F1FE0500002D06D1AA
:1044A000608B50F0030060837FF001001CE03B0054
:1044B000DBB23200D2B229002000FFF70DFF231D2E
:1044C000220029002000FFF73FFF010049B2002928
:1044D00004D0618B51F00301618304E0628B4FF6DD
:1044E000FC710A40628340B2F2BD000090A5000852
:1044F00068A30008B4BD000870B505000026002DB3
:1045000006D16B4B40F624026A491248FDF77AFB4C
:10451000286D401EFEF702F8030000223100C9B2E8
:1045200089B22800FFF7AAFE0400002C02D15FF038
:10453000FF300DE03300DBB2002221002800FFF73E
:10454000CBFE2B1D2A0021002800FFF7FDFE40B204
:1045500070BD000090B6000818AA0008FCC300084F
:1045600000B200082DE9F84304000027002C06D112
:104570004F4B40F64F0250495048FDF743FBE66E63
:10458000002E01D1002063E094F89A00FF2804D0A7
:1045900094F89A00401C84F89A00F0688089FDF72E
:1045A000B5FFC00705D53089002802D15FF00109A9
:1045B00001E05FF000094846C0B2002801D00022A7
:1045C00000E00122F068436892B23900C9B289B2B2
:1045D0002000FFF753FE0500002D02D15FF0FF30F1
:1045E00036E0D5F804805FFA89F9B9F1000F0BD0F5
:1045F0001120FDF78BFFB8F80C204CF2FF010A40A8
:104600001043A8F80C000BE0686810F11401706802
:10461000038930891B1A9BB201227068FDF7A0FE46
:10462000F1684868FDF77AFF401C216D091A0029DE
:1046300000D520653B00DBB2002229002000FFF7F7
:104640004BFE231D220029002000FFF77DFE40B213
:10465000BDE8F283B8B6000814C40008E0B600084C
:10466000108400202CC4000808B70008D4BD00083E
:10467000F4BD00083CBA0008E88300209CC500088F
:1046800060BA000884BA0008D0C1000844C4000819
:1046900014BE0008C0AF000830B7000858B70008C3
:1046A0002CB20008ECC1000808C2000834BE0008A3
:1046B00090A5000824C20008A8BA000890B6000817
:1046C00080B5FDF76AFF51480068002803D15048C3
:1046D0000068002805D000224E49FA2000F07EF83C
:1046E00002E000204C49086001BD80B54A490868D5
:1046F00000280ED145480068002803D144480068CE
:10470000002806D00120086000224249FA2000F06B
:1047100065F801BD70B504000D001600062001F01B
:10472000F9F9002806D13D4BBE223D493D48FDF731
:1047300069FA27E0002101608560C66044603A4A5A
:104740001168002901D110601CE0436811684968B4
:104750005B1AB3F1004F03D311680160106011E0E0
:10476000126800E01268002A0CD01168002906D0F7
:104770004368116849685B1AB3F1004FF2D31168BE
:104780000160106070BD38B504002500686880477E
:1047900002F03BF825490B682968CB18191AB1F1CA
:1047A000004F06D3220022492B681818FFF7B2FFEA
:1047B00004E022001E491800FFF7ACFF31BD10B520
:1047C000012408E01B4800EBC402194950F83400EA
:1047D00000F004F8641C032CF4D310BD70B5040081
:1047E0000D001600B4F1804F06D30C4B40F2291295
:1047F00011490C48FDF706FA02F007F824183200B8
:1048000029002000FFF786FF70BD0000F483002020
:10481000F8830020C14600081C840020DCA50008A5
:104820009CA9000880B70008148400201884002088
:10483000874700085CC400086CAB000810B4DFF8C0
:104840008C13096808E091F82D20920703D40268C0
:10485000CB689A4215D00968002914D091F82D2010
:1048600012F00502052AF6D14A68002AF3D003683F
:104870008A6813404C688A681440A342E3D1080058
:1048800019E0080017E0DFF84823116800290FD06D
:10489000116891F82D1011F00501052908D1116852
:1048A0004968002904D0007800F0FF007F2801D17A
:1048B000002000E0106810BC704780B5010091F83E
:1048C0002D00C0070FD5486800280CD0DFF804037E
:1048D00042694B689A4204D04069FDF7F1FD002817
:1048E00001D0012000E0002002BD2DE9F8430500C1
:1048F0000E006F683878C0B20009042804D0280080
:10490000FDF7CBFB0020D3E097F800805FEA880832
:1049100018F03C087888FDF7F9FD0400200029898B
:1049200080B2884204D2210089B22800FDF7C7FA7C
:104930006889414689B2884207D32889A4B2A04237
:1049400003D3404680B2142804DA2800FDF7A5FB03
:104950000020ADE03869DFF87C92C9F81400F868EF
:10496000C9F8100099F8140010F0F000E0280AD1FE
:1049700096F82D00C00704D57068002801D03400D7
:104980001CE000241AE03000FFF797FF002801D058
:10499000340013E0002499F8140000F0FF007F2891
:1049A0000CD08A48046800E02468002C06D0B44289
:1049B000FAD02000FFF781FF0028F5D03100D9F8A8
:1049C0001000FDF77DFD002805D199F8100010F0CA
:1049D000F000E02804D12800FDF75FFB002067E02D
:1049E000002C04D12800FDF758FB002060E0F88877
:1049F0004FF63F71084208D0280002F036F9050052
:104A0000002D01D1002053E06F68C9F80040C9F8BB
:104A10000460C9F808703878800010F03C00A9F8EC
:104A20000C00414689B22800FDF7EAFA787A01289D
:104A30000DD0062806D011280ED13100280002F032
:104A4000F8FB22E031002800FBF79EFB1DE031005F
:104A5000280002F0F5FC18E02100D9F81400FDF759
:104A60002FFD00280ED199F8140010F0F000E02876
:104A700008D0414609B22800FDF709FB02212800B1
:104A800002F0B3FD2800FDF708FB0020C9F8000084
:104A90000020C9F804000020C9F808000020A9F887
:104AA0000C000020C9F810000020C9F814000020F4
:104AB000BDE8F2833EB5089D0C00002A05D0002910
:104AC00002D00968002900D12C1D02959DF81C1008
:104AD00001919DF818100091DBB2210000F001F85F
:104AE0003EBD2DE9F84306000D0014009846B07B4A
:104AF000012806D0384B4FF4557238493848FDF735
:104B000081F8002C42D05FF0140914213000FDF729
:104B100072FA002802D07FF0010054E077687089B3
:104B2000142806D22C4B40F289322E492C48FDF72E
:104B300069F80998089987F80880787220683861C0
:104B40001FFA89F95FEA990959F0400987F800903E
:104B500079703089FDF7DAFC78800020F880DFF882
:104B60008880B8F80000FDF7D1FCB880B8F80000E4
:104B7000401CA8F80000002D03D11C480068F86014
:104B800001E02868F8600020788109E07089142825
:104B900002DA7FF0010016E07068016900916C464E
:104BA0000A9B988C002809D0988C3189884205D2BC
:104BB00022001900300002F0A2F904E022003100C6
:104BC00018005B699847BDE8F2830000DC83002091
:104BD000E083002064830020F8A4000818C70008C0
:104BE00048B30008E0AD00082884002018C8000879
:104BF00040F0200070472DE9F14FB0B0924604918B
:104C00000DF142013A9A2B9199464A7000200AE030
:104C10001AF8011B0498309A90470028049000F07D
:104C200031860D98401C0D909AF8000050B125284F
:104C3000EED1002100220791089209910A920B916E
:104C40000C9204E00D9800F01FBE41F001011AF82B
:104C5000010F2028F9D023280CD02B2804D02D2890
:104C600005D0302809D00BE041F00201EFE741F018
:104C70000401ECE741F00801E9E741F01001E6E743
:104C80002A280FD1D9F8002052F8040BC9F80020C7
:104C900000280F9003D540420F9041F004010AF123
:104CA000010A14E00F92DFF8E83B0AE00F989842FF
:104CB00005DA00EB800402EB4402303A0F920AF16D
:104CC000010A9AF80020A2F130000A28EED39AF8DF
:104CD00000002E2803D04FF0FF320E9229E01AF880
:104CE000010F2A2809D1D9F8000050F8042BC9F87F
:104CF00000000E920AF1010A1BE02D280CBF0AF1F8
:104D0000010A002000220E92DFF8844B0BE040B92C
:104D10000E9AA24205DA02EB820503EB4503303B13
:104D20000E930AF1010A9AF80030A3F130020A2A20
:104D3000EDD3ADF840100FF65C309AF8001002F099
:104D4000B3FC08B11AF8010B8DF842009DF842003F
:104D5000682805D19AF8000068280CD1622106E085
:104D60006C2804BF9AF800006C2804D171218DF8DA
:104D700042100AF1010A12A806901AF801BBBBF111
:104D800025012CD01C3900F09481091F022940F222
:104D90009081133900F0A884093900F08A81891EB6
:104DA00000F03D85491E00F0EA84491E022940F2C8
:104DB0008081091F00F0E384491F00F0EF80491E45
:104DC00000F09284491E00F0D780C91E0CD0891EC5
:104DD00000F08A84C91E00F0878400F02BBD0122F8
:104DE0000792252100F023BDD9F8000050F8044BAC
:104DF000C9F80000002C059440F0AB802B9948784E
:104E0000002800F0A1804FF0FF340FF6902002F050
:104E100057FC201A40F0368500F018BD01236A4681
:104E200002A9304600F0FEFD002840F02B856D1EE3
:104E3000F4D13096079D12AF75B1309E17F8011B63
:104E40000498B0470028049000F01C850D98401C81
:104E50006D1E0D90F2D130960A9D3021002D8DF8F7
:104E600000100CDD309E01236A4602A9304600F096
:104E7000D9FD002840F006856D1EF4D13096059FBF
:104E8000089D75B1309E17F8011B0498B0470028A3
:104E9000049000F0F7840D98401C6D1E0D90F2D127
:104EA00030960B9D3021002D8DF800100CDD309ECA
:104EB00001236A4602A9304600F0B4FD002840F004
:104EC000E1846D1EF4D1309605980899099D471824
:104ED00075B1309E17F8011B0498B0470028049064
:104EE00000F0D0840D98401C6D1E0D90F2D13096CC
:104EF0000C9D3021002D8DF800100CDD309E01231B
:104F00006A4602A9304600F08DFD002840F0BA84C0
:104F10006D1EF4D130969DF8400041077FF584AEB8
:104F20002020002C8DF800007FF77EAE309D0123FD
:104F30006A4602A9284600F075FD002840F0A284C8
:104F4000641EF4D130956FE60FF63830059000F00E
:104F50007DBC0E9D002D04D5204602F0D1FB0446F9
:104F600007E02A46204602F0E7FB002814BF041B96
:104F70002C46089400F06ABCD9F8001051F8040BD4
:104F8000C9F8001020F00004002121F0FF35CDE920
:104F9000024512AB0593782100F03DBC2B9948786F
:104FA00020B14FF0FF340FF6AC2030E79DF84200FF
:104FB000622860D0682817D06A283FD06C2806D0B5
:104FC000712847D074282CD07A281DD062E0D9F8F7
:104FD000001051F8040BC9F80010002866D14FF0FA
:104FE000FF340FF6882012E7D9F8001051F8040BAF
:104FF000C9F8001020B94FF0FF340FF6702006E713
:105000000D99018000F022BCD9F8001051F8040B72
:10501000C9F80010002849D14FF0FF340FF64C209A
:10502000F5E6D9F8001051F8040BC9F80010002873
:105030003CD14FF0FF340FF63420E8E6D9F80010E9
:1050400051F8040BC9F8001080B94FF0FF340FF687
:105050001C20DCE6D9F8001051F8040BC9F8001048
:1050600020B94FF0FF340FF60420D0E60D9AD31785
:10507000C0E90023EAE3D9F8001051F8040BC9F89D
:10508000001020B94FF0FF340FF6E010BFE60D9985
:105090000170DBE3D9F8001051F8040BC9F80010D7
:1050A00020B94FF0FF340FF6C410B0E60D9901603F
:1050B000CCE39DF842004C2807BFD9F80010CB1D67
:1050C000D9F80000C31D23F00703C9F80030D3E965
:1050D00000010833C9F80030CDE90201C80F02D041
:1050E00007982D210AE0BDF84000810702D50798F6
:1050F0002B2103E0C00705D50798202112AB1954D6
:10510000401C079012A80799DDE9024543184BF0AF
:1051100020006128059321AE0BD00E98002802D5FF
:1051200006200E9005E001BF4BF02000672801210A
:105130000E91DDE902014F007F1517F1010F0DD12E
:1051400008030BD0ABF1610203201A2A089002D2A7
:105150000FF634110FE00FF634110CE017F1010FC8
:105160000ED109030CD1ABF1610203201A2A089079
:105170001CD30FF620110322184600F0E9FF65E367
:10518000DDE902016A4602F003FBCDE902014BF0C2
:105190002000612811D1059830210170821C0592F0
:1051A000BBF1610F0CBF7821582102E00FF6E0013E
:1051B000E1E741700798801C0790DDE9020120F0CB
:1051C000000231F0004308BF002A02D1002500246C
:1051D00045E14BF02008B8F1610F40F095800E9842
:1051E000002847BF21210191401C0190019F7F1C95
:1051F0002046294600220023DDE9024502F000FB9B
:1052000038BF85F0004500998DF88420091F002FD4
:1052100000910DF1850034DD064620462946002226
:10522000002302F007FB2BD21C2202F01DFB0446D8
:105230000D4602F0B7FBFF1F002F804609DD02F08C
:10524000CDFB02460B462046294602F08FFC044661
:105250000D46F01D0721B8F1000F0CDD491E5EBFA1
:1052600008F00F0200F8012D4FEA2818F3D502E0EC
:10527000002200F8012D491EFAD5C61D002FCCDCF6
:1052800030460DF18501401A01990DF1850605465C
:105290008842C8BF0D46002D2FD4854206DA0DF195
:1052A0008500415D0829A8BF0F2000DA00202946AB
:1052B00021AA0A4400E06D1E12F80139491E8342FA
:1052C000F9D00F2804D10DF18500425C521C4254E4
:1052D000002904D50098001D21AE6D1C0090681EA9
:1052E0000BD431180A783032D3B23A2BA4BF5A44C7
:1052F0003A3A401E01F80129F4D50E98002840F1F1
:10530000AD80691E0E91A9E00099DFF8082747F2E9
:105310009750414391FBF2F2009225F00045C2F113
:105320000702002A04DD2046294600F04FFB0BE06F
:1053300052420020DFF8E01600F048FB02460B4620
:105340002046294602F084FC04460D46B8F1660F5B
:1053500006BF009F0A3706270E983F18142FC8BFB4
:10536000142730208DF884000DF1850000E03046D0
:10537000002F35DD06462046294602F08DFD014608
:105380000A4606F1080304200A26B2FBF6F606EBED
:10539000860EA2EB4E02303203F8012C0A22B6FB35
:1053A000F2F202EB820EA6EB4E063036401E03F8F8
:1053B000026DE9D1083F002F03F10806D7DD08464A
:1053C00002F07CFD02460B462046294602F0CEFB49
:1053D0000022DFF8483602F07FFD04460D46CAE79A
:1053E0000DF18501401A0DF1850604E00099491E72
:1053F000401E0091761C31783029F7D0B8F1660F45
:1054000002D10099491C04E0B8F1650F0CBF0121DD
:1054100000210E9D4D19A842B8BF451E002D1DD478
:10542000854204DA705D3428C8BF392000DC3020A2
:105430002946721E531800E06D1E13F80149491EDB
:105440008442F9D0392802D1705C401C7054002984
:1054500004D50098401C16466D1C0090009C02F07C
:1054600011FE406A0778DDF8388028B2002802DC97
:1054700001250FF224664BF02000662808BF641C4B
:1054800016D0672846D120B210F1040F48DB404502
:1054900046DA9DF84000641C010703D428B2404559
:1054A000D8BF804620B2B8EB000848BF4FF00008D4
:1054B0000FFA84FBBBF1000F00F3B5800898411C84
:1054C0000891302205990A54B8F1000F03DC9DF8C9
:1054D0004000010704D50898411C089105990F5414
:1054E00018EB0B0FB8BFC8F1000424B26042A0440F
:1054F0002AB20B909045B8BF4546059B08982DB23F
:1055000009952A463146184400F022FEA8EB050012
:105510000C90D2E0BBF1610F17D14FF0700B19E086
:1055200028B2404504DA9DF840100A0758BF80466B
:10553000B8F1010848BF4FF00008BBF1670F14BF76
:105540004FF0450B4FF0650B04E0BBF1410F08BF76
:105550004FF0500B0898411C0891B8F1000F0599C5
:1055600016F8012B0A5403DC9DF8400001071AD5F8
:105570000898411C0891B8F1000F05990F5412DDED
:105580006D1E28B28045B8BF45460598089B2AB2D3
:105590003146184400F0DCFD08992DB269180891D5
:1055A000A8EB05000B9005980899084421B2002942
:1055B00080F800B003D42B224270821C04E02D221C
:1055C00042700C46821C644200212CAB20460AE04B
:1055D00004460A2094FBF0F000EB8005A4EB4504A0
:1055E00003F8014B491C00B20028F1DC012906DC5C
:1055F0004BF02000652804BF302002F8010B002981
:105600002CAB08D1302002F8010B06E0491E585C93
:10561000303002F8010B0029F8DC0599089808449D
:10562000121A099249E028B221B288421CDA059880
:10563000089B2AB23146184400F08AFD08992DB221
:1056400069180891ABEB0500B8F1000F0B9003DC73
:105650009DF84000020704D5059847540999491C54
:105660000991CDF8308028E00598089B22B2314698
:10567000184400F06DFD08982D1B5844B8F1000F38
:10568000089003DC9DF840100A0703D5411C0891DF
:1056900005990F5428B28045B8BF45460598089B28
:1056A0002AB206EB0B01184400F052FD08982DB207
:1056B00028180890A8EB05000B909DF8400000F01A
:1056C0001400102840F0C280079A08990B988A1895
:1056D000099982180C988A1882180F98824280F2D1
:1056E000B580821A0A92B1E09DF84200622808D083
:1056F00068280ED06A2814D06C281FD0712810D0CA
:105700001CE0D9F8001051F8040BC9F80010C0B221
:105710001AE0D9F8001051F8040BC9F8001080B253
:1057200012E0D9F80000C21D22F00702C9F80020DB
:10573000D2E900010832C9F8002006E0D9F80010CB
:1057400051F8040BC9F800100021CDE902019DF8C1
:10575000400001075AD5DDE90223002B08BF002ACB
:1057600054D04BF02000782850D1079812A930224D
:105770000A54401C431C079301F800B046E09DF812
:105780004200622808D068280ED06A2814D06C28FD
:105790001FD0712810D01CE0D9F8001051F8040B6C
:1057A000C9F8001040B21AE0D9F8001051F8040B03
:1057B000C9F8001000B212E0D9F80000C21D22F0B2
:1057C0000702C9F80020D2E900010832C9F8002018
:1057D00006E0D9F8001051F8040BC9F80010C11701
:1057E000CDE90201002902D507982D210AE0BDF874
:1057F0004000810702D507982B2103E0C00705D59B
:105800000798202112AA1154401C079012A807994A
:1058100001440591594602A800F04EF816E0012017
:105820000790D9F8000050F8041BC9F800008DF863
:1058300048100BE001212522BBF1000F07918DF8E4
:10584000482003D0022207928DF849B00F9A07989A
:105850000A990C9C121A0898521A0B99121A099854
:10586000521A121A9DF84000141B41073FF5E2AA94
:105870002020002C8DF800007FF7DCAA309E254602
:10588000FFF7CCBA4FF0FF3031B0BDE8F08F000029
:10589000CBCCCC0C686A6C747A4C00007072696E68
:1058A00074665F733A2062616420257320617267B9
:1058B000756D656E740000002DE9FC4707468A4649
:1058C0003C6950466F2808BF082505D0FFF790F9BE
:1058D000782814BF0A251025D7E900013C26804608
:1058E0008946BAF1640F18BFBAF1690F05D10029D2
:1058F00003D5D8F1000869EB4909B9F1000F08BFD9
:10590000B8F1000F0CD1386B50B9082D3AD197F887
:105910003800010736D530223B2684F83B2031E0A1
:105920008DF800A0404649462A46EB1702F0AEFB30
:105930003032D0B2761E3A2801960EDAA255404691
:1059400049462A46EB1702F0A1FB80465FEA0109AF
:1059500008BFB8F1000F05D108E09DF8000012184B
:10596000513AEBE7F868A1198842DBD3082D09D139
:1059700097F83800010705D5A05D302802D0761EC3
:105980003020A055C6F13C02BA61A119F960386B0C
:10599000824208DA821A3A624FF6EF70398F01407C
:1059A0003987BDE8F38700280ED597F8380000F056
:1059B0001400102808D17B6B7969386A5B1A1B1AAE
:1059C0009A1A002AC8BF3A62BDE8F3872DE9D0438E
:1059D00006460F4614464FF00008DFF8449012E0E8
:1059E000E00707D542464B463046394602F074FA86
:1059F00006460F464046494642464B4602F06CFA80
:105A0000641080468946002CEAD130463946BDE80C
:105A1000D0830000A08601000000F03F84D79741AA
:105A200000002440F8B505460E4617461C460020E7
:105A30005CB117F8011BB068A847B06030B1F06ADC
:105A4000401CF0620020641EF3D1F2BD4FF0FF3025
:105A5000F2BD00007072696E74665F733A20256E45
:105A600020646973616C6C6F776564007072696E35
:105A700074663A2062616420256E20617267756DDC
:105A8000656E7400000000006E616E004E414E00B5
:105A9000696E6600494E460030002E000021826883
:105AA00011604268D21C92089200002107E08368CE
:105AB0001B68136083681A6003881A44491C438872
:105AC0009942F4DB704710B5002407E0314821000B
:105AD00089B250F82100FFF7E1FF641C200080B27A
